:020000040800F2
:100000000000022089010008190300081D030008F0
:100010003503000839030008410300080000000010
:100020000000000000000000000000004503000880
:1000300049030008000000004D030008E913000810
:10004000E7010008E9010008EB010008ED010008E4
:10005000EF010008F1010008F3010008F5010008B4
:10006000F7010008F9010008FB010008FD01000884
:10007000FF01000801020008030200080502000851
:1000800007020008090200080B0200080D02000820
:100090000F020008110200081302000815020008F0
:1000A00051030008190200081B0200081D02000885
:1000B0001F02000821020008230200082502000890
:1000C00027020008290200082B0200082D02000860
:1000D0002F02000831020008330200083502000830
:1000E00037020008390200083B0200083D02000800
:1000F0003F020008410200084302000845020008D0
:1001000047020008490200084B0200084D0200089F
:100110004F0200085102000853020008550200086F
:1001200057020008590200085B0200085D0200083F
:100130005F0200086102000863020008650200080F
:1001400067020008690200086B0200086D020008DF
:100150006F020008710200087302000875020008AF
:1001600077020008790200087B0200087D0200087F
:100170007F0200088102000883020008850200084F
:10018000870200088902000803F0AAF80B4880F3F0
:1001900008880B490B4A0C4B9A42BEBF51F8040B1E
:1001A00042F8040BF8E70949094A00209142BCBF14
:1001B00041F8040BFAE701F01FF9000000000220EB
:1001C00070DA000800000020D4090020D8090020BF
:1001D00048230020FEE7FEE7FEE7FEE7FEE7FEE736
:1001E000FEE7FEE7FEE7FEE7FEE7FEE7FEE7FEE7E7
:1001F000FEE7FEE7FEE7FEE7FEE7FEE7FEE7FEE7D7
:10020000FEE7FEE7FEE7FEE7FEE7FEE7FEE7FEE7C6
:10021000FEE7FEE7FEE7FEE7FEE7FEE7FEE7FEE7B6
:10022000FEE7FEE7FEE7FEE7FEE7FEE7FEE7FEE7A6
:10023000FEE7FEE7FEE7FEE7FEE7FEE7FEE7FEE796
:10024000FEE7FEE7FEE7FEE7FEE7FEE7FEE7FEE786
:10025000FEE7FEE7FEE7FEE7FEE7FEE7FEE7FEE776
:10026000FEE7FEE7FEE7FEE7FEE7FEE7FEE7FEE766
:10027000FEE7FEE7FEE7FEE7FEE7FEE7FEE7FEE756
:10028000FEE7FEE7FEE7FEE7FEE700BF08B5012157
:100290004FF4804000F038FB00214FF48040BDE86F
:1002A000084000F031BB00BF014B1860704700BF31
:1002B00000380140014B1860704700BF2000274202
:1002C00001F0FC0303F1804303F59C3301F00301CB
:1002D00010B49A6889000F248C4022EA04029A60C4
:1002E0009A685DF8044B00FA01F111439960704778
:1002F000014B1860704700BFDC002742014B1860BB
:10030000704700BF00042742024B186AC0F3002068
:10031000704700BF00380140704700BF08B5012199
:100320004FF4006000F0A8FA014B80221A60FEE74B
:10033000002C0040FEE700BF08B5FFF7EFFF00BF4D
:10034000FEE700BF704700BF704700BF704700BFA7
:1003500008B50121034802F0C7FEBDE8084000F0DF
:1003600077BD00BF0040014008B501214FF080502B
:1003700000F0BEFA00214FF08050BDE8084000F0C8
:10038000B7BA00BF014B1860704700BF20000E4293
:10039000034A136823F0E00318431060704700BF5E
:1003A00000700040014B1860704700BF10000E4203
:1003B000014B1860704700BFA0000E42014B18604F
:1003C000704700BFA4000E42034A136823F4404361
:1003D00018431060704700BF00700040014B186068
:1003E000704700BF40000E42014B1860704700BFCD
:1003F00044000E42054A136818B923F440231360E1
:10040000704743F440231360704700BF0070004002
:10041000014B1860704700BF24000E4210B40D4C11
:100420000D4A236823F4406323F00303184320603C
:100430001369012943F00403136108D020BF064A61
:100440005DF8044B136923F004031361704730BF58
:10045000F5E700BF0070004000ED00E010B40D4C67
:100460000D4A236823F4406323F0030318432060FC
:100470001369012943F00403136108D020BF064A21
:100480005DF8044B136923F004031361704730BF18
:10049000F5E700BF0070004000ED00E00549064AA6
:1004A0000B6843F002030B60136943F0040313610C
:1004B00030BF70470070004000ED00E0034B5B6808
:1004C000034214BF01200020704700BF00700040AD
:1004D000024A136843EA80001060704700700040D1
:1004E0000F4B10481A68002142F0010230B41A6024
:1004F00099601A680C4D0D4C22F0A85222F410227B
:100500001A605D60C3F88440C3F888001A6822F45A
:1005100080221A6030BCD960C3F88C10704700BFCD
:100520000038024000300024103000240030002049
:10053000024B00221A701870704700BF0238024048
:1005400082B00023094A0193136813F4003F019B12
:1005500003F101030193019B02D1B3F5A04FF3D145
:10056000024B1868C0F3404002B0704700380240A8
:10057000034A136823F0F80343EAC0001060704791
:1005800000380240014B1860704700BF000047422E
:10059000064B002201281A701A7005D0042802D1D7
:1005A00005221A7070477047187070477038024003
:1005B000014B1860704700BF800E474230B4029C68
:1005C000064D40EA04605B080843013B40EA8210A4
:1005D00040EA0340686030BC704700BF003802400A
:1005E000014B1860704700BF600047420907034B8A
:1005F00041EA8011C3F88410704700BF0038024000
:10060000014B1860704700BF68004742120742EA7A
:100610000162034B42EA8012C3F88820704700BF92
:1006200000380240014B1860704700BF700047421D
:10063000014B1860704700BF4C004742034A936863
:1006400023F0EC6319430143916070470038024086
:10065000034A936823F0784319430143916070473C
:1006600000380240034A936823F003031843906064
:10067000704700BF00380240024B986800F00C0041
:10068000704700BF00380240034A936823F0F0032C
:1006900018439060704700BF00380240034A9368D7
:1006A00023F4E05318439060704700BF00380240C5
:1006B000034A936823F4604343EAC00090607047A4
:1006C000003802401F4A936803F00C03042B10B457
:1006D00034D0082B19D01C4B03601A4A1B4994686C
:1006E000C4F303140C5DE34043609468C4F38224B4
:1006F0000C5D23FA04F4846092685DF8044BC2F345
:1007000042328A5CD340C360704754685168526873
:100710006302C2F3881201F03F014CBF0C4B0A4B3D
:10072000B3FBF1F303FB02F3064A5268C2F3014242
:1007300001325200B3FBF2F30360CEE7044B0360D7
:10074000CBE700BF003802400024F4000000002086
:1007500000127A0000F44073B3F5407F09D10849D4
:100760008A6820F0704322F4F81223F44073134394
:100770008B60034B1A6FC0F30B0010431867704770
:1007800000380240014B1860704700BF3C0E4742E2
:10079000014B1860704700BF400E4742014B186084
:1007A000704700BF5C014742044AD2F88C3023F402
:1007B00040131843C2F88C00704700BF0038024055
:1007C000044AD2F88C3023F440031843C2F88C005A
:1007D000704700BF00380240044AD2F88C3001381C
:1007E00023F01F031843C2F88C0070470038024002
:1007F000054AD2F88C30013823F4F85343EA002339
:10080000C2F88C30704700BF00380240044AD2F86A
:100810008C3023F440331843C2F88C00704700BF7B
:1008200000380240014B1860704700BFE01147429A
:10083000044A136B19B923EA000010637047184388
:100840001063704700380240044A536B19B923EA19
:1008500000005063704718435063704700380240EF
:10086000044A936B19B923EA000090637047184358
:100870009063704700380240044A136C19B923EAA8
:10088000000010647047184310647047003802403D
:10089000044A536C19B923EA0000506470471843A6
:1008A0005064704700380240044A136919B923EABA
:1008B0000000106170471843106170470038024013
:1008C000044A536919B923EA00005061704718437C
:1008D0005061704700380240044A936919B923EA0D
:1008E00000009061704718439061704700380240E3
:1008F000044A136A19B923EA0000106270471843CA
:100900001062704700380240044A536A19B923EA5A
:100910000000506270471843506270470038024030
:10092000044A136D19B923EA000010657047184393
:100930001065704700380240044A536D19B923EA24
:1009400000005065704718435065704700380240FA
:10095000044A936D19B923EA000090657047184363
:100960009065704700380240044A136E19B923EAB3
:100970000000106670471843106670470038024048
:10098000044A536E19B923EA0000506670471843B1
:100990005066704700380240044A136F01280CBFAC
:1009A00043F0080323F00803136770470038024040
:1009B000044A137819B923EA0000107070471843ED
:1009C000107070470D3802404309012B0BD0022BE9
:1009D000094B0CBF1B6F5B6F00F01F0023FA00F088
:1009E00000F001007047044B1B6800F01F0023FA61
:1009F00000F000F00100704700380240024A536FD7
:100A000043F080735367704700380240034BDB6844
:100A1000184214BF01200020704700BF0038024078
:100A2000014B1870704700BF0E38024008B53A4BB2
:100A3000984221D0394B984228D0394B984231D036
:100A4000384B98423AD0384B984209D0374B9842AD
:100A500040D0374B984253D0364B984244D008BDD3
:100A600001214FF48010FFF743FF00214FF4801065
:100A7000BDE80840FFF73CBF01211020FFF744FF0D
:100A800000211020BDE80840FFF73EBF01214FF4D0
:100A90000030FFF72DFF00214FF40030BDE8084083
:100AA000FFF726BF01214FF48020FFF721FF00212F
:100AB0004FF48020BDE80840FFF71ABF01214FF432
:100AC0000020FFF715FF00214FF40020BDE808408B
:100AD000FFF70EBF01212020FFF716FF0021202085
:100AE000BDE80840FFF710BF01214FF00040FFF7BD
:100AF000FFFE00214FF00040BDE80840FFF7F8BEC0
:100B000001214FF08040FFF7F3FE00214FF08040BD
:100B1000BDE80840FFF7ECBE001001400044004073
:100B200000480040004C00400050004000140140CC
:100B300000780040007C0040028AF0B592B2044682
:100B4000C8880D4622F4405202438989AB882F8918
:100B50002282A6896889254A3B43324003431343D6
:100B6000A381A38A9BB223F440730B4385B0A38275
:100B70006846FFF7A7FD1E4B9C4205D003F5806336
:100B80009C4201D0029B00E0039BA2892968194D79
:100B9000100403EB8303A28903EB83034CBF4900DA
:100BA0008900B3FBF1F1A5FB013040096423120475
:100BB00003FB10134FEA00100AD41B013233A5FBCC
:100BC0000323C3F3431303439BB2238105B0F0BD5A
:100BD000DB0003F13202A5FB0223C3F3421242EA17
:100BE00000039BB2238105B0F0BD00BFF3E9FFFF16
:100BF000001001401F85EB5100234FF416514FF4B4
:100C000040220160C0E901328381704730B40B8813
:100C10004D888C88028AC9882B43234392B20B43A8
:100C200022F470621343038230BC704700230360D8
:100C300043607047838929B923F400531B041B0CBC
:100C40008381704743F4005383817047038B03F41F
:100C50007F430383038B194301837047838919B949
:100C6000C3F30E038381704743F4004383817047CD
:100C7000838A29B923F400631B041B0C8382704709
:100C800043F4006383827047C1F308018180704799
:100C90008088C0F308007047038A23F00F031B0409
:100CA0001B0C0382038A194301827047838929B987
:100CB00023F002031B041B0C8381704743F00203E3
:100CC00083817047838923F400631B041B0C838199
:100CD0008389194381817047038A23F020031B0411
:100CE0001B0C0382038A194301827047038A29B9C6
:100CF00023F480431B041B0C0382704743F480439E
:100D000003827047838943F001038381704700BFEA
:100D1000838A29B923F008031B041B0C83827047C4
:100D200043F0080383827047038BDBB20383038B9A
:100D300043EA012101837047838A29B923F0200304
:100D40001B041B0C8382704743F02003838270478F
:100D5000838A29B923F010031B041B0C838270477C
:100D600043F0100383827047838A23F004031B043B
:100D70001B0C8382838A194381827047838A29B935
:100D800023F002031B041B0C8382704743F0020311
:100D900083827047838A1AB923EA010181827047EE
:100DA00019438182704700BF10B401F01F04C1F3E2
:100DB00042110123012903FA04F311D002290CBFC7
:100DC0001030143032B902685DF8044B22EA030394
:100DD0000360704702685DF8044B1343036070477B
:100DE0000C30EFE70388194214BF01200020704740
:100DF000C94389B201807047C1F3421210B4012384
:100E000001F01F04012A03FA04F316D0022A0CBFD2
:100E1000028A828A1340028892B253B10123090ADE
:100E200003FA01F10A4214BF184600205DF8044B92
:100E3000704718465DF8044B704782891340EAE713
:100E4000090A012303FA01F1C94389B201807047FD
:100E50002DE9F04F3048DFF8C8B00388DFF8C4A0B0
:100E600083B0C3F30013CBF8203001F0EDFCCBF8D6
:100E7000240002F0C7FDDAE90423CDE9000102F005
:100E800083FC0022254B04460D4603F0A7F820A35F
:100E9000D3E90023061C2946204618BF012603F08B
:100EA000BBF800B1013EC6EB064002F0BBFDDAE93B
:100EB000068906460F4642464B46DDE9000102F030
:100EC00065FC32463B4602F061FC04460D464B464B
:100ED000424630463946CBE9064502F057FC9AF8BF
:100EE0003530002B0CBF282320235344C3E9004591
:100EF0009AF835309DED007BB3FA83F35B09CAE9BC
:100F000006018AED047B8AF8343003B0BDE8F08F27
:100F100000000000C0FFDF40000001400000E0C012
:100F2000480A0020A80A00202DE9F04FBC4DBD4C16
:100F300095F83430286BA0625BB285F8353095F8AF
:100F400035305BB205EBC30393ED087B8FB08DEDBD
:100F5000087B02F079FDDDE9082302F015FCCDE9FC
:100F600006014FF40061B04800F014FE002840F084
:100F70002C81D4F83090D4F83480D4F838B0DFF82D
:100F800000A384F858009AF80530002B00F0168171
:100F900094ED007B8DED0A7B0022A44BDDE9060178
:100FA00002F0AAFDD5E90223CDE90C0102F0ECFB29
:100FB000064658460F4602F047FD02460B463046AD
:100FC000394602F099FD064648460F4602F03CFDC0
:100FD000DDE9062302F090FD02460B463046394615
:100FE00002F0D4FB064640460F4602F02DFDDDE937
:100FF0000A2302F081FD0FF21829D9E9008902467F
:101000000B463046394602F0C1FB42464B46064687
:101010000F4603F001F8002800F0B780C4E9028908
:101020008348E063DDE9080103F020F82064DDE98E
:10103000060103F01BF8606400F01EFFA06A02F0D6
:1010400003FD0646606C0F4602F0FEFCCDE904018C
:10105000E06B02F0F9FCCDE90201206C02F0F4FC37
:1010600032463B46CDE900017249734803F05EF910
:10107000714803F025FA80B200F082FFD4E90267DC
:10108000002200233046394602F0BCFF002200282F
:1010900000F0FA80694B4FF00108C4E904233046A0
:1010A0000022674B674E394602F026FD02F0BEFF74
:1010B0004FF080436449D863644A654BC6F80080AA
:1010C000086812681B6894F85810C0B2D2B2DBB23C
:1010D00084F85A0084F85B2084F85C3009B1E16A36
:1010E00029635C4EB0B1B178012913D0D5ED0C7AEB
:1010F0009FED597AF4EEC77AF1EE10FA00F3CD8045
:101100009FED567AF4EEC77AF1EE10FA40F1CB80FB
:1011100053492963B070B2B17178012913D0D5ED6C
:101120000C7A9FED507AF4EEC77AF1EE10FA00F3E4
:10113000B7809FED4D7AF4EEC77AF1EE10FA40F1E8
:10114000B98047492963727013B13278012A57D1A7
:101150009AF8052033703ABB2FA3D3E90023DDE9C9
:10116000060102F0C9FC02460B46D5E9000102F077
:101170000DFB9DED0C7B0123C5E9000185ED027B94
:101180008AF805300FB0BDE8F08FDFF8F8904FF027
:1011900000083046394642464B4602F01FFF40B336
:1011A000C4E9028931483CE79DED0C7B002385EDC5
:1011B000027B8AF805300FB0BDE8F08F95ED007B1B
:1011C0008DED0A7B84ED007BE6E62948294B2A4910
:1011D0002A4AD0F800901B68D1F80080D2F800B0FD
:1011E000E362C4F83090C4F83480C4F838B0012009
:1011F000C5E6C4E902673046394602F037FF10E71A
:1012000000F01EFA94F85C30A2E700BFAFF3008054
:101210000000000000C057409A9999999999B93FE8
:10122000A80A0020480A0020E012002000003440F4
:101230000000BE42D4D50008201B00200000F03F73
:1012400000005540900240420082414208824142E3
:1012500010824142400A002000002F44000061C477
:10126000000048C40000614400002FC40000BEC25A
:10127000F0090020F4090020FC090020F8090020F2
:10128000380A002000C057C007F100431F468046BF
:10129000C4E9026700220023FFE60A49296339E70F
:1012A000084929634FE79FED087A77EE877AC5ED05
:1012B0000C7A2FE79FED047A77EEC77AC5ED0C7AAA
:1012C00041E700BF000048440000C84208B50C4B8D
:1012D0000022012199705A701A7000F0BDF900F0D7
:1012E00047F900F0F5F900F0FBF900F001FA00F021
:1012F00055FA00F067FABDE8084000F095BE00BF5F
:10130000400A0020704700BFFEE700BF4FF0FF30EB
:10131000704700BF024B0C221A604FF0FF3070473D
:1013200020230020024B0B221A604FF0FF30704741
:10133000202300204FF400534B600020704700BF73
:101340000120704700207047024B16221A604FF0B0
:10135000FF30704720230020024B1F221A604FF0FD
:10136000FF30704720230020002070470A490B6897
:1013700073B1EFF308821844904202D8086018460F
:101380007047064B0C221A604FF0FF331846704727
:10139000034B0B60EDE700BFD8090020202300209D
:1013A00048230020002070474FF400534B6000207A
:1013B000704700BF024B02221A604FF0FF307047A7
:1013C00020230020024B0A221A604FF0FF307047A2
:1013D0002023002000207047024A13680133136065
:1013E000704700BF14000020024A136801331360E5
:1013F000704700BF1400002008B5FFF767FF0B4BD4
:101400000B4A0C495960F02082F823000021072282
:10141000094C0A4D99601A6022682B689A42FBD0E9
:10142000236801332360FFF77FFDF5E710E000E05C
:1014300000ED00E07F2C8000E00900201400002077
:101440002DE9F04F404B414D414F424CDFF81CA17C
:10145000012687B0314604201E70FFF7E9F93146B6
:101460002020FFF715FA31464FF48000FFF7E0F92E
:101470000DF1180828460822062102F06BF94FF0FA
:10148000400908222846072102F064F948F8189D0F
:1014900028464146304B019302F0D2F84146284697
:1014A00080230025009302F0CBF84FF4E1324FF493
:1014B0004023314638460292CDE90353ADF814502B
:1014C000FFF7CCFB384602A9FFF736FB314638461A
:1014D000FFF7B0FB214A224862604FF4806303218A
:1014E0004FF0206B4FF48072A36121634FF44033BF
:1014F0002146A0604FF400685046A36262626561B5
:10150000C4E90755E562C4E90D55E560C4F800B0CB
:10151000C4F8108000F038FF324649463846FFF7DD
:1015200039FC3146504600F06DFF0E4B0E49C4F8B1
:1015300000B04FF40032C4E903986562A160A26272
:101540001D7007B0BDE8F08FE409002000080240DC
:1015500000140140E01A00200203000104140140BD
:10156000E00A00201C1B0020201B002028640240F1
:1015700070B5012188B02A4D2A4C0846FFF788F93A
:1015800001211020FFF754F940F2023328464FF4AE
:1015900020626946CDE9002302F052F82846012274
:1015A000092102F0D7F801220B21284602F0D2F8D7
:1015B000204601F00BF805A801F02EF901250026C0
:1015C00005A920464FF0FF330693ADF81C50059651
:1015D00001F0D8F8324633462046032101F052FE8E
:1015E00002A801F03BFC02A92046ADF8106001F012
:1015F00097FB042302A92046ADF8083001F090FBC8
:101600002946204601F060FD2A462946204601F081
:1016100049FD66622946204601F052F908B070BDC6
:1016200000100240000001400021014801F048B9CB
:10163000000001400021014801F042B900000140D2
:1016400008B501214FF40060FFF716F9014B802225
:101650001A6008BD002C004010B5012182B04FF483
:101660008030FFF715F94FF4407000F09DFD02A89F
:101670000D4B0E4C40F8043D00F0A0FD204600222A
:10168000802101F0D1F820464FF65B6101F0DAF8D5
:1016900001221146204601F005FD2046012101F0FE
:1016A0000FF902B010BD00BF18000001004001405A
:1016B00010B5064C01212046002201F0F3FC204623
:1016C0000021BDE8104001F0FBB800BF0040014020
:1016D000024B1B7803B17047B2E600BFE40900205B
:1016E000024B1B7803B17047AAE600BFE409002053
:1016F00010B501218AB00846FFF7BEF81E4C012143
:101700000846FFF795F81D4B0193204604226946D1
:10171000009201F095FF20460122022102F01AF802
:1017200042F2CF02002302A94FF080400392ADF8AD
:10173000103002938DF8123001F024F805A801F062
:10174000C9F90F4B059305A902234FF08040ADF86E
:10175000203001F043F908214FF0804001F028FAD1
:1017600001214FF0804001F08BF801214FF08040C3
:1017700001F0A6F80AB010BD00000240020300010B
:101780006000010000214FF0804001F099B800BFD7
:1017900000214FF0804001F093B800BF00B5012157
:1017A00083B00846FFF744F8102240F2013369463F
:1017B0000348CDE9002301F043FF03B05DF804FBCB
:1017C0000000024030B5012183B00820FFF730F857
:1017D00015250222032300246946064800958DF84A
:1017E00004408DF807208DF8053001F029FF03B083
:1017F00030BD00BF000C0240B1F5006F0BD96FF493
:101800000063CB18C3F3C423C3EB4313A1F50061FA
:1018100001EBC32189B203888B4238BF03F5006313
:10182000591A89B201807047184B5B6882B09BB22D
:10183000ADF80430A3B1BDF804300288C3F50063ED
:101840009BB2ADF80630BDF806309A420CD2BDF816
:10185000061089B28B1A9BB2C1F30A01018073B9D9
:101860000023438002B07047BDF806309A42F7D992
:10187000C2F5006300219BB20180002BF0D0044927
:1018800043800A44426002B0704700BF28640240AF
:10189000E00A00202DE9F04F85B00024394FDFF831
:1018A000E8A00193914605460E469346A0467A6805
:1018B00092B2ADF80C20A2B1BDF80C202988C2F577
:1018C000006292B2ADF80E20BDF80E20914225D2F2
:1018D000BDF80E0080B2421A92B2C0F30A0028800E
:1018E00042BB6968A5F802800022301902F00EFCA4
:1018F0006A88ABEB020314441FFA83FBA4B2BBF16A
:10190000000F05D0002AD2D1A9EB0B091FFA89F9E3
:10191000019BA3F8009005B0BDE8F08FBDF80E2044
:101920009142DED9C1F5006292B2A5F80080002094
:10193000002AD6D05144934569606A80D5D2A2EB83
:101940000B0292B2B2F5006F0BD96FF40063D71897
:10195000C7F3C427C7EB4717A2F5006202EBC72203
:1019600092B2824288BF00F50060821A92B22A8049
:1019700030195A4602F0CAFB019BA3F8009005B04B
:10198000BDE8F08F28640240E00A00202DE9F04F06
:1019900085B0BDF83840002A00F0E88004F1FF3936
:1019A0001FFA89F9019340F2FF734FF0000E994539
:1019B000DFF8DCA117468846064628BF99467246DE
:1019C000DAF8040080B2ADF80C00C0B1BDF80C30FC
:1019D0003188C3F500639BB2ADF80E30BDF80E3010
:1019E0009942BDF80E3080F08E809BB2581A80B2BA
:1019F000C3F30A033380002840F0908000207080F9
:101A000000239C46ADF80A301D461FFA8CF3591C82
:101A1000604589B271D0746818F805B014F80C40AC
:101A20005C455AD0AF42ADF80A100CF1010CECD174
:101A300011448CB2A14579D3A54277D8BEF5006F89
:101A40000DD96FF400620EEB0203C3F3C423AEF5AD
:101A5000006EC3EB43130EEBC3231FFA83FE3388E0
:101A60000199734538BF03F50063A3EB0E039BB2E6
:101A7000338022460DF10A033046FFF70BFF019B2E
:101A80004FF0000B601B03F804B018442A4641468F
:101A900002F084FD002876D07088DE465A46002881
:101AA0008ED1BEF1000F61D0BEF5006F0CD96FF47E
:101AB00000637344C3F3C423AEF5006EC3EB43135A
:101AC0000EEBC3231FFA83FE3388734552D3A3EB77
:101AD0000E03338005B0BDE8F08F0135591CADB25F
:101AE00089B2AF42ADF80A100CF1010CA0D01FFA78
:101AF0008CF3591C604589B28DD11A4492B20028EA
:101B00007FF45EAFCDE799427FF678AFC1F5006014
:101B1000002380B2338000283FF470AF1B4B7080ED
:101B2000864419441FFA8EFE716069E7AEEB040427
:101B3000A4B2B4F5006F0BD96FF400616318C3F35E
:101B4000C423C3EB4313A4F5006404EBC324A4B281
:101B50003388A34238BF03F500631C1B4FF0000E0F
:101B60003480724600287FF42BAF9AE7002005B03E
:101B7000BDE8F08F03F50063A3EB0E0EA6F800E0BE
:101B800005B0BDE8F08F2046F1E700BFE00A002075
:101B90002864024010B584B004AA0A2302F8043D68
:101BA00004460091034611460B480122FFF7EEFE62
:101BB00078B10A4A0192131D00932046A2F108034E
:101BC0000749043A02F0D4FBA0F10400B0FA80F017
:101BD000400904B010BD00BFE8090020F80900204A
:101BE000D4D500082DE9F04F85B0002690469E46DA
:101BF0000288BDF83830BDF840C0019100963146EA
:101C0000B14635469A4C6468A4B2ADF80C4084B332
:101C1000BDF80C40C4F50064A4B2ADF80E40BDF8A8
:101C20000E40A242BDF80E4025D2A4B2A71ABFB200
:101C3000C4F30A0404804FBB002322464380009B68
:101C4000A9EB03039BB2B3F5006F0BD96FF40061EE
:101C50005918C1F3C421C1EB4111A3F5006303EB93
:101C6000C1239BB29A42C0F0FC80D21A02800020AD
:101C70006AE04480E3E7A24240D9C2F500674FF032
:101C80000004BFB204800024002FD5D0794C4780D7
:101C90001619B944012946601FFA89F900F0DD8060
:101CA000022900F0DC80AA460022D04502F10101A1
:101CB00066D80025002B00F09980521B96B20F9A2F
:101CC000AA4615440AEB06040AF10102D445A4B25F
:101CD0001FFA82FA14D94168095D05F8011B0AEB65
:101CE0000607D445B9B2BAB247885DD98F42E9D860
:101CF00002880121002FA2D0554683E714469BE7B6
:101D00000025641BAA46A4B275440AEB04019A4557
:101D100089B21CD3013F791A89B2B1F5006F0BD992
:101D20006FF400640B19C3F3C423C3EB4313A1F591
:101D3000006101EBC32189B203888B4250D203F5C5
:101D40000063591A0180012005B0BDE8F08F466894
:101D500015F8012B16F801B0934528D009F10102BE
:101D60000A44D21B92B20092002BD3D04A1C47885F
:101D700092B2BA424FF0000A97D351460288B9E7AF
:101D8000B55C019A448812F80AB08AB202EB0901E4
:101D9000AB45A1EB070119D089B2A24200914FF0E7
:101DA000000A56D2274680E797428BD8A0E70AF16F
:101DB000010A1FFA8AFA0AEB0402534592B2A9D922
:101DC0004788BA42A1D30288022193E70AF1010AA7
:101DD000A2421FFA8AFAE5D302882746002189E742
:101DE0005B1A0380012005B0BDE8F08F14460F9AFE
:101DF0002A44691C65458DB282D24168AC45095DB3
:101E000002F8011B04F101061DD84388013B1B1B8E
:101E10009BB2B3F5006F0BD96FF400655A19C2F38A
:101E2000C422C2EB4212A3F5006303EBC2239BB2B0
:101E300002889A4238BF02F50062D31A038001205B
:101E400005B0BDE8F08F4788B4B2A742D1D8AA4602
:101E50004EE72746514602884CE700222AE7002435
:101E60004FE702F50062D31A038000206CE700BF41
:101E700028640240E00A0020F8B5114F3B78EBB12E
:101E8000104D114C114E2946204600F007FB00284A
:101E9000F9D040213046FEF7A5FF0028F3D00C49C9
:101EA000094800F019FB0021074800F0ABFA0022B6
:101EB00080210648FEF76EFF00233B700020F8BD2E
:101EC0001C1B002000002020A064024000140140E0
:101ED0000000302001B970472DE9F843DFF89C90ED
:101EE00099F800300E460746FBB11E4D1E4CDFF838
:101EF00080802946204600F0D1FA0028F9D0402100
:101F00004046FEF76FFF0028F3D01849164800F04E
:101F1000E3FA0021144800F075FA002280211448E9
:101F2000FEF738FF002389F8003032463946114861
:101F300002F0ECF810490C480E6100F025FA01227D
:101F400080210B48FEF726FF40210948FEF750FF8D
:101F50000121054800F056FA012389F80030BDE858
:101F6000F88300BF00002020A06402400000302061
:101F700000140140201B0020E01A00201C1B002040
:101F800000B970472DE9F041DFF8888098F80030FB
:101F90000646F3B11A4D1B4C1B4F2946204600F054
:101FA0007DFA0028F9D040213846FEF71BFF0028B3
:101FB000F3D01649134800F08FFA0021114800F0C1
:101FC00021FA002280211048FEF7E4FE002388F861
:101FD00000300F490B480E6100F0D6F90122802134
:101FE0000948FEF7D7FE40210748FEF701FF01210F
:101FF000044800F007FA012388F80030BDE8F081BA
:1020000000002020A06402400014014000003020A5
:10201000E01A00201C1B0020024B1B7803B1704704
:10202000FFF70EBAE4090020024B1B7803B170479A
:10203000FFF706BAE409002007EE901A9FED067A32
:10204000064BF8EE677A1B68036067EE877AFCEE52
:10205000E77AC0ED017A70470AD7A33C140000204C
:10206000064B02681B6840689A4288BF03F1FF3341
:102070009B1A834234BF00200120704714000020C7
:10208000064A074B10B494681A68A82303FB01F1B1
:10209000C0E90124C1605DF8044B704710E000E026
:1020A00014000020C3681BB3F0B4164A164C97689E
:1020B000426826688168964212D08B421CD9013250
:1020C000124C02E0A34215D92A469642A3EB010323
:1020D00002F101052146F5D10C49C360C0E9016157
:1020E0008F4202D2C91B994206D80020F0BC70472B
:1020F00001207047C0E901240023C360F0BC012027
:10210000704700BF10E000E0140000207F2C80002A
:10211000F0B4104E104FB168104C3A68A82303FB7E
:1021200000F0A8B1B5683B6893420CD088420FD943
:10213000013203E0A04202F1010209D99342A0EB6F
:1021400001002146F6D18D42EBD24D1B8542E8D9E4
:10215000F0BC704710E000E0140000207F2C8000ED
:1021600007EE900A9FED0E7AF8EE677A30B467EECC
:10217000877A0C4DFCEEE77A296817EE904A2B68B7
:102180005A1E9942A3EB0100A2EB010203D884423C
:10219000F5D830BC70479442F1D830BC704700BFCE
:1021A0000AD7A33C1400002040F0BF60024B40F46B
:1021B0000030D860704700BF00ED00E0F0B4017857
:1021C000C378012401F01F0294404D092BB920353A
:1021D0000F4B43F82540F0BC70470E4B4678DB6848
:1021E00082780B4FD843C0F30220C0F10403DBB266
:1021F0009E400F230341F6B21340334339441B0181
:10220000DBB281F8003347F82540F0BC704700BFCF
:1022100000E100E000ED00E021F0604121F07F01ED
:10222000014B01439960704700ED00E0044A1369D7
:1022300019B923EA00001061704718431061704714
:1022400000ED00E0044A136804280CBF43F00403C7
:1022500023F004031360704710E000E00268364981
:10226000002310B422F0010221248842026003609E
:1022700043608360C3600361446131D02F4B984257
:1022800034D02F4B984238D02E4B984240D02E4B12
:10229000984244D02D4B984236D02D4B984242D094
:1022A0002C4B984217D02C4B984240D02B4B984245
:1022B0001CD02B4B984220D02A4B984228D02A4B36
:1022C00098422CD0294B98421ED0294B98422AD0B4
:1022D000284B984207D14FF03D5243F8AC2C02E016
:1022E000254B3D229A605DF8044B70474FF47462B1
:1022F00043F8202C5DF8044B70474FF4741243F8F8
:10230000382C5DF8044B70471C4A43F87C2CEAE7F4
:102310004FF0746243F8502C5DF8044B7047184A34
:1023200043F8642CDFE7174A43F8942CDBE73D229F
:1023300043F8082CD7E700BF106002402860024035
:102340004060024058600240706002408860024075
:10235000A0600240B860024010640240286402405D
:102360004064024058640240706402408864024045
:10237000A0640240B864024000600240400F0020A8
:102380003D00002000003D200B6870B4D1E9052419
:10239000CD682B431343D1E9072523431343D1E9E8
:1023A00009422B43D1E90D652343134304680B4ACB
:1023B000334322402B4313430360D1E90B3442697A
:1023C0000D6922F0070223431343D1E9014243611F
:1023D00045608460C26070BC704700BF3F801CF0E5
:1023E0000023C0E90033C0E90233C0E90433C0E987
:1023F0000633C0E90833C0E90A33C0E90C3383630C
:10240000704700BF036819B923F0010303607047E8
:1024100043F0010303607047036819B923F40043D4
:102420000360704743F4004303607047036819B9C1
:1024300023F020030360704743F0200303607047DC
:1024400041607047406880B2704700BF036822B99E
:1024500023F4002303600161704743F40023036009
:1024600001617047036819B923F480230360704742
:1024700043F48023036070470AB9C160704701616B
:10248000704700BF0068C0F3C0407047006800F0AC
:1024900001007047406900F0380070470B4B0C4A50
:1024A00010B40C4CA04294BF184610468B004CBF91
:1024B000436803685DF8044B21F0F02121F082119C
:1024C000194214BF01200020704700BF0060024085
:1024D000006402400F64024030B4084B084D094CC0
:1024E00021F0F022A8428CBF1846204622F082122A
:1024F0008B004CBFC260826030BC704700640240F9
:102500000F640240006002400B060CD54369AAB17B
:1025100043F08003802943610FD0036801F01E015E
:10252000194301607047802907D0002AF5D103685C
:1025300001F01E0123EA01010160704723F08003CE
:1025400080294361F3D1704730B4114B114D124AC9
:1025500021F0F02424F0C314A84298BF1A469CB17D
:10256000006800EAD12000F01E0388004CBF5068CC
:10257000106821F0F02121F08211084002D0181CCF
:1025800018BF012030BC7047436903F08003ECE7BB
:10259000006002400F6402400064024030B4084B07
:1025A000084D094C21F0F022A8428CBF1846204665
:1025B00022F082128B004CBFC260826030BC704738
:1025C000006402400F6402400060024008B5604BA6
:1025D000984232D0B0F1804F39D05E4B984240D013
:1025E0005D4B984247D05D4B98421CD05C4B984263
:1025F0004BD05C4B984252D05B4B984265D05B4BC2
:1026000098426CD05A4B984253D05A4B984272D051
:10261000594B98427BD0594B984200F08E80584BD2
:1026200098427ED008BD01210820FEF761F9002103
:102630000820BDE80840FEF75BB901210846FEF717
:1026400063F900210120BDE80840FEF75DB90121D2
:102650000846FEF74DF900210120BDE80840FEF7CD
:1026600047B901210220FEF743F900210220BDE80D
:102670000840FEF73DB901210420FEF739F9002199
:102680000420BDE80840FEF733B901211020FEF711
:102690002FF900211020BDE80840FEF729B90121DB
:1026A0002020FEF725F900212020BDE80840FEF794
:1026B0001FB901214FF40030FEF726F900214FF435
:1026C0000030BDE80840FEF71FB901210220FEF7E7
:1026D0001BF900210220BDE80840FEF715B90121D1
:1026E0004FF48030FEF710F900214FF48030BDE840
:1026F0000840FEF709B901214FF48020FEF704F9E4
:1027000000214FF48020BDE80840FEF7FDB801210C
:102710004020FEF7EDF800214020BDE80840FEF71C
:10272000E7B801214FF48070FEF7E2F800214FF482
:102730008070BDE80840FEF7DBB801218020FEF77D
:10274000D7F800218020BDE80840FEF7D1B800BFCF
:10275000000001400004004000080040000C004060
:1027600000100040001400400004014000400140FF
:10277000004401400048014000180040001C004097
:1027800000200040214A0388904270B49BB212D0CE
:1027900002F5806290420ED0B0F1804F0BD0A2F5CE
:1027A0008032904207D002F58062904203D002F559
:1027B0008062904203D14A8823F070031343144D82
:1027C0004C680A88A84215D005F58065A84211D04A
:1027D0000E8923F4407305F56C459BB23343A84240
:1027E0000380C46202850CD18B7A03860123838225
:1027F00070BC70470380C46202850123838270BC71
:102800007047044B9842EFD0F7E700BF000001404B
:10281000001000400004014000234FF0FF324260EE
:10282000038103608372704701858282704700BF15
:10283000038823F070031B041B0C194301807047AD
:1028400041627047C1627047406A7047008D7047AF
:10285000038829B923F002031B041B0C0380704773
:1028600043F0020303807047038829B923F004036F
:102870001B041B0C0380704743F004030380704764
:10288000038829B923F080031B041B0C03807047C5
:1028900043F0800303807047038823F008031B0480
:1028A0001B0C03800388194301807047038823F4BD
:1028B00040731B041B0C038003881943018070477D
:1028C000038829B923F001031B041B0C0380704704
:1028D00043F0010303807047F0B4048C8D89B1F894
:1028E00002C00F88194E24F001042404240C04842F
:1028F000028C8488038B22F0020223F073031204FB
:102900001B04120C45EA0C051B0CB04242EA0502FE
:10291000A4B243EA070309D00D4DA84206D0896846
:1029200084800383F0BC416302847047CE890D8AA2
:102930004F8A22F0080232438E8824F4407422F039
:1029400004023D4332432C43E9E700BF000001404D
:1029500000040140F0B4048C8E89B1F802C00F88E5
:102960001D4D24F010042404240C0484038C84885A
:10297000028B23F0200322F4E6421B0412041B0CFA
:1029800046EA0C06120C43EA061342EA0722A84262
:102990009BB2A4B292B20AD005F58065A84206D0D7
:1029A000896884800283F0BC816303847047CD8989
:1029B0000E8A4F8A23F0800343EA05134FF6BF7552
:1029C0001D408B8824F440643E4345EA031344EAE7
:1029D00086049BB2A4B2E3E700000140F0B5048C8A
:1029E0008D89B1F802E00F881D4E24F48074240410
:1029F000240C0484038CB0F804C0828B23F400738D
:102A00001B0422F0730245EA0E041B0C120443EA75
:102A10000423120CB0429BB21FFA8CF542EA070263
:102A200008D0104CA04205D0896885808283C1639C
:102A30000384F0BDCC890E8A4F8A23F4006343EAF5
:102A400004234FF6FF341C408B8825F440553E4349
:102A500044EA032345EA06149BB2A5B2E4E700BFAB
:102A60000000014000040140F0B4048C8E89B1F8EC
:102A700002C00F88164D24F480542404240C0484CE
:102A8000038C8488828B23F4005322F4E6421B04D7
:102A900012041B0C46EA0C06120C43EA063342EA07
:102AA0000722A8429BB2A4B292B20AD005F5806573
:102AB000A84206D0896884808283F0BC01640384C4
:102AC00070470D8A24F4804444EA8514A4B2F1E7E7
:102AD00000000140002303608380C0E902330361EA
:102AE000704700BF038C10B401248C4023EA040318
:102AF00021F00804038418307CB10439C1F34E017D
:102B000048F6FF740B5823400B5012020B585DF827
:102B1000044B92B21A430A50704749084FF68F741B
:102B20000B5823400B500B585DF8044B1A430A50C6
:102B3000704700BF4163704781637047C16370474E
:102B400001647047038B23F070031B041B0C1943B3
:102B500001837047038B23F4E0431B041B0C43EAFF
:102B6000012189B201837047838B23F070031B041A
:102B70001B0C194381837047838B23F4E0431B04B0
:102B80001B0C43EA012189B281837047038B23F038
:102B900008031B041B0C194301837047038B23F4A8
:102BA00000631B041B0C43EA012189B201837047B7
:102BB000838B23F008031B041B0C1943818370478C
:102BC000838B23F400631B041B0C43EA012189B2AD
:102BD00081837047038B23F004031B041B0C1943F0
:102BE00001837047038B23F480631B041B0C43EAAF
:102BF000012189B201837047838B23F004031B04F6
:102C00001B0C194381837047838B23F480631B045F
:102C10001B0C43EA012189B281837047038B23F0A7
:102C200080031B041B0C194301837047038BC3F300
:102C30000E0343EA012189B201837047838B23F09D
:102C400080031B041B0C194381837047838BC3F3E0
:102C50000E0343EA012189B281837047038C23F07C
:102C600002031B041B0C194301847047038C23F0DF
:102C700008031B041B0C194301847047038C23F0C9
:102C800020031B041B0C43EA011189B20184704725
:102C9000038C23F080031B041B0C43EA011189B24F
:102CA00001847047038C23F400731B041B0C43EA5C
:102CB000012189B201847047038C23F400631B0453
:102CC0001B0C43EA012189B201847047038C23F471
:102CD00000531B041B0C43EA013189B20184704785
:102CE000038C10B401248C4023EA04030384038C76
:102CF0005DF8044B02FA01F1194389B2018470476F
:102D0000038C10B404248C4023EA04030384038C52
:102D10005DF8044B02FA01F1194389B2018470474E
:102D20000B88F0B44D888F880E89C98853B3042B63
:102D30004AD0082B038C6ED023F480531B041B0C49
:102D40000384828B048C330340F6FF46164045F61D
:102D5000FF72224043EA072342F48052334342EA9F
:102D600005329BB292B283830284838B23F4406347
:102D70001B041B0C8383838B43EA012189B281836B
:102D8000F0BC7047048C24F001042404240C048457
:102D9000038B028C9BB223F0F30392B23B4322F0ED
:102DA0000A0243EA06132A439BB242F0010203835C
:102DB0000284038B23F00C031B041B0C0383038B83
:102DC00019430183F0BC7047038C23F010031B04EC
:102DD0001B0C0384048B028C3B0292B243EA06363E
:102DE00022F0A00240F6FF43234042F0100233439A
:102DF00042EA05129BB292B203830284038B23F44E
:102E000040631B041B0C0383038B43EA012189B23B
:102E10000183F0BC704723F480731B041B0C0384F4
:102E2000838B028C9BB292B223F0F30322F42062D4
:102E30003B4342F4807243EA061342EA05229BB206
:102E400092B283830284838B23F00C031B041B0C3C
:102E50008383838B19438183F0BC70470023012255
:102E600042600360038170472DE9F0414F88B1F85B
:102E700004E00A89CD880B88002F4FEA021114BFA5
:102E8000002602261203BEF1010F4FEA052415BFEA
:102E90004FF480784FF400784FF0010C4FF0020CA3
:102EA00089B292B2A4B2002B45D0038C23F0100358
:102EB0001B041B0C0384B0F81880038C9BB242EAFD
:102EC0000E2E23F0A00340F6FF4202EA080243F070
:102ED000100342EA0E0243EA071392B29BB2028346
:102EE0000384038B23F440631B041B0C0383038BB9
:102EF0001C430483038C23F001031B041B0C038479
:102F0000028B038C92B29BB222F0F30223F00A03ED
:102F100043F0010311431E434CEA0101018306847F
:102F2000038B23F00C031B041B0C0383038B1D4337
:102F30000583BDE8F081038C23F001031B041B0C07
:102F40000384B0F818C0038C1FFA8CFC9BB22CF0E1
:102F5000F30C23F00A034EEA0C0E3B4341EA0E0148
:102F600043F0010301830384038B23F00C031B0450
:102F70001B0C0383038B1D430583038C23F0100379
:102F80001B041B0C0384058B038C40F6FF419BB292
:102F9000294023F0A00343F010030A4343EA061636
:102FA00042EA0808A0F818800684038B23F44063E3
:102FB0001B041B0C0383038B1C430483BDE8F081BB
:102FC000406B7047806B7047C06B7047006C7047F8
:102FD000038B23F00C031B041B0C0383038B19438B
:102FE00001837047038B23F440631B041B0C038392
:102FF000038B43EA012189B201837047838B23F05D
:103000000C031B041B0C8383838B19438183704740
:10301000838B23F440631B041B0C8383838B43EA61
:10302000012189B28183704770B40B884C888A88EB
:10303000CE880D89234313434C898A8933432B431C
:1030400023431343A0F8443070BC7047002303604F
:103050004360836083817047B0F8443021B9C3F383
:103060000E03A0F84430704743F40043A0F8443006
:10307000704700BF838829B923F004031B041B0C8D
:103080008380704743F0040383807047838829B9A5
:1030900023F001031B041B0C8380704743F00103E2
:1030A0008380704783891AB923EA010181817047BF
:1030B00019438181704700BF81827047038A19429A
:1030C00014BF012000207047C94389B201827047B4
:1030D000038A828911EA030092B203D00A4214BF24
:1030E00001200020704700BFC94389B201827047A8
:1030F0000A43A0F84820704783891AB923EA0101DE
:103100008181704719438181704700BF838829B945
:1031100023F008031B041B0C8380704743F0080353
:1031200083807047038923F007031B041B0C038172
:10313000704700BF038923F070031B041B0C194365
:103140000181038943F0070303817047602970B44C
:1031500026D0068C26F001063604360C0684048B35
:10316000058C24F0F3042404240C25F00A0544EA19
:1031700003142D0442F0010644F001042D0CA4B206
:10318000354304830584038923F070031B041B0C5F
:1031900019430181038943F00703038170BC704721
:1031A000048C24F010042404240C0484048B068C66
:1031B00026F0A00640F6FF4536042C40360C44EAC3
:1031C000033446EA021644F4807446F01006A4B2B2
:1031D000B6B204830684D6E710B4048942EA032316
:1031E0001943E4B2214389B2018103895DF8044B9C
:1031F00023F077031B041B0C43F077030381704714
:1032000010B4048942EA03231943E4B2214389B28A
:10321000018103895DF8044B43F4804303817047C7
:10322000038923F070031B041B0C194301817047B1
:10323000838823F070031B041B0C8380838819434D
:1032400081807047038923F007031B041B0C038153
:103250000389194301817047038923F080031B040C
:103260001B0C0381038919430181704710B4048941
:103270000A43E4B242EA032323439BB203815DF88D
:10328000044B704770B442EA03120589038B048C27
:103290000A4E24F0220425F0070524041E402D04C4
:1032A000240C2D0C46F4807314432943A4B243F03C
:1032B000010301810383048470BC7047FCFCFFFFA1
:1032C000838829B923F080031B041B0C838070477B
:1032D00043F0800383807047A0F85010704700BF10
:1032E0003849394BD1F88820384842F47002C1F887
:1032F00088201A68002142F001021A6099601A6859
:1033000022F0847222F480321A6058601A6882B007
:1033100022F480221A60D960009101911A6842F467
:1033200080321A601A4603E0009BB3F5A04F09D023
:10333000136803F400330193009B01330093019B56
:10334000002BF1D0204B1B6813F4003318BF01236E
:103350000193019B012B05D01A4B4FF000629A603C
:1033600002B07047184B1A491A6C1A4842F0805242
:103370001A640A6842F440420A609A689A609A683D
:1033800042F400429A609A6842F4A0529A605860EF
:103390001A6842F080721A601A689201FCD50E49D0
:1033A000094A40F205700860996821F003019960AC
:1033B000996841F002019960936803F00C03082BAF
:1033C000FAD1C9E700ED00E00038024010300024D7
:1033D0000070004008544007003C0240154A9368C2
:1033E00003F00C03042B23D0082B09D0124B114AF5
:1033F00012499268C2F303128A5CD3400B61704792
:103400005068516852684302C2F3881201F03F01CC
:103410004CBF0B4B084BB3FBF1F303FB02F3054A24
:103420005268C2F3014201325200B3FBF2F3DEE70D
:10343000034BDCE7003802400024F40018000020B1
:1034400000127A0008B501214FF40060FDF750FA30
:1034500000214FF40060BDE80840FDF749BA00BF05
:10346000034A536823F4C07318435060704700BF89
:10347000002C004082B0084A00230193536823F0D7
:103480007F030193019B00F07F0018430190019B93
:10349000536002B0704700BF002C0040014B012276
:1034A0001A607047A4800542024B00F07F0018604C
:1034B000704700BF002C0040024B40F080001860B5
:1034C000704700BF002C0040024B9868003018BFC6
:1034D00001207047002C0040014B00229A60704789
:1034E000002C004008B54B4B984228D04A4B9842DC
:1034F0002FD04A4B984236D0494B98423DD0494B49
:10350000984212D0484B984241D0484B984248D0FC
:10351000474B98425BD0474B984262D0464B98420B
:1035200049D0464B984268D008BD01211020FDF7D4
:10353000BBF900211020BDE80840FDF7B5B9012115
:103540000846FDF7B1F900210120BDE80840FDF76C
:10355000ABB901210220FDF7A7F900210220BDE847
:103560000840FDF7A1B901210420FDF79DF90021D4
:103570000420BDE80840FDF797B901210820FDF7B8
:1035800093F900210820BDE80840FDF78DB901211D
:103590002020FDF789F900212020BDE80840FDF733
:1035A00083B901214020FDF77FF900214020BDE8CB
:1035B0000840FDF779B901214FF40070FDF774F967
:1035C00000214FF40070BDE80840FDF76DB90121FE
:1035D0008020FDF769F900218020BDE80840FDF753
:1035E00063B901214FF48070FDF75EF900214FF4BB
:1035F0008070BDE80840FDF757B901214FF48060A5
:10360000FDF752F900214FF48060BDE80840FDF756
:103610004BB900BF00000240000402400008024015
:10362000000C02400010024000140240001802404A
:10363000001C0240002002400024024000280240FA
:103640002DE9F047D1F800C0002301274FF0030E09
:1036500002E00133102B3FD007FA03F232EA0C04E8
:10366000F7D15C00D0F800800E790EFA04F5ED4336
:1036700008EA0508C0F80080D0F800A006FA04F9AE
:10368000013E49EA0A09012E0EFA04F8C0F800903A
:1036900016D8D0F808904E7905EA09058560D0F86B
:1036A00008908D79A64046EA09068660466826EAB3
:1036B00002024260466805FA03F292B23243426067
:1036C000C568CA7925EA0805C560C568A240013306
:1036D0002A43102BC260BFD1BDE8F0874FF6FF72BE
:1036E0000023C0E90023704782B04FF48033019378
:1036F000019B0B430193019BC361C161019BC361AA
:10370000C3690193C369019302B070470369194209
:1037100014BF012000207047006980B2704700BFCD
:103720004369194214BF012000207047406980B2EC
:10373000704700BF01837047418370470AB94183D6
:1037400070470183704700BF41617047436959402A
:1037500041617047CB0800EB830001F0070110B412
:10376000036A89000F248C4023EA04030362036A7E
:103770005DF8044B02FA01F119430162704700BF82
:1037800081F0004102E000BF83F0004330B54FEA12
:1037900041044FEA430594EA050F08BF90EA020F7F
:1037A0001FBF54EA000C55EA020C7FEA645C7FEA12
:1037B000655C00F0E2804FEA5454D4EB5555B8BF35
:1037C0006D420CDD2C4480EA020281EA030382EAA6
:1037D000000083EA010180EA020281EA0303362D38
:1037E00088BF30BD11F0004F4FEA01314FF4801C0B
:1037F0004CEA113102D0404261EB410113F0004F1D
:103800004FEA03334CEA133302D0524263EB4303D3
:1038100094EA050F00F0A780A4F10104D5F1200E71
:103820000DDB02FA0EFC22FA05F2801841F10001CC
:1038300003FA0EF2801843FA05F359410EE0A5F1A0
:1038400020050EF1200E012A03FA0EFC28BF4CF0D1
:10385000020C43FA05F3C01851EBE37101F0004587
:1038600007D54FF0000EDCF1000C7EEB00006EEB94
:103870000101B1F5801F1BD3B1F5001F0CD349081E
:103880005FEA30004FEA3C0C04F101044FEA445275
:1038900012F5800F80F09A80BCF1004F08BF5FEAFC
:1038A000500C50F1000041EB045141EA050130BDDC
:1038B0005FEA4C0C404141EB010111F4801FA4F17F
:1038C0000104E9D191F0000F04BF01460020B1FAD4
:1038D00081F308BF2033A3F10B03B3F120020CDA0C
:1038E0000C3208DD02F1140CC2F10C0201FA0CF0EA
:1038F00021FA02F10CE002F11402D8BFC2F1200C4F
:1039000001FA02F120FA0CFCDCBF41EA0C01904004
:10391000E41AA2BF01EB0451294330BD6FEA04044D
:103920001F3C1CDA0C340EDC04F11404C4F1200238
:1039300020FA04F001FA02F340EA030021FA04F34A
:1039400045EA030130BDC4F10C04C4F1200220FAA1
:1039500002F001FA04F340EA0300294630BD21FADF
:1039600004F0294630BD94F0000F83F4801306BFA5
:1039700081F480110134013D4EE77FEA645C18BF99
:103980007FEA655C29D094EA050F08BF90EA020F30
:1039900005D054EA000C04BF1946104630BD91EA28
:1039A000030F1EBF0021002030BD5FEA545C05D12B
:1039B0004000494128BF41F0004130BD14F580046A
:1039C0003CBF01F5801130BD01F0004545F0FE41DE
:1039D00041F470014FF0000030BD7FEA645C1ABF13
:1039E000194610467FEA655C1CBF0B46024650EA4A
:1039F000013406BF52EA033591EA030F41F4002176
:103A000030BD00BF90F0000F04BF0021704730B5FB
:103A10004FF4806404F132044FF000054FF00001D0
:103A200050E700BF90F0000F04BF0021704730B591
:103A30004FF4806404F1320410F0004548BF404266
:103A40004FF000013EE700BF42004FEAE2014FEABB
:103A500031014FEA02701FBF12F07F4393F07F4F96
:103A600081F06051704732F07F4208BF704793F099
:103A70007F4F04BF41F40021704730B54FF46074AC
:103A800001F0004521F000411CE700BF50EA0102AF
:103A900008BF704730B54FF000050AE050EA010258
:103AA00008BF704730B511F0004502D5404261EBC8
:103AB00041014FF4806404F132045FEA915C3FF409
:103AC000D8AE4FF003025FEADC0C18BF03325FEAA6
:103AD000DC0C18BF033202EBDC02C2F1200300FA57
:103AE00003FC20FA02F001FA03FE40EA0E0021FA7C
:103AF00002F11444BDE600BF70B54FF0FF0C4CF46A
:103B0000E06C1CEA11541DBF1CEA135594EA0C0F1B
:103B100095EA0C0F00F0DEF82C4481EA030621EA56
:103B20004C5123EA4C5350EA013518BF52EA033591
:103B300041F4801143F4801338D0A0FB02CE4FF043
:103B40000005E1FB02E506F00042E0FB03E54FF073
:103B50000006E1FB03569CF0000F18BF4EF0010E6B
:103B6000A4F1FF04B6F5007F64F5407404D25FEA67
:103B70004E0E6D4146EB060642EAC62141EA55511A
:103B80004FEAC52040EA5E504FEACE2EB4F1FD0C5C
:103B900088BFBCF5E06F1ED8BEF1004F08BF5FEADA
:103BA000500E50F1000041EB045170BD06F000468C
:103BB00046EA010140EA020081EA0301B4EB5C0439
:103BC000C2BFD4EB0C0541EA045170BD41F4801131
:103BD0004FF0000E013C00F3AB8014F1360FDEBF56
:103BE000002001F0004170BDC4F10004203C35DA32
:103BF0000C341BDC04F11404C4F1200500FA05F3B5
:103C000020FA04F001FA05F240EA020001F0004255
:103C100021F0004110EBD37021FA04F642EB0601CB
:103C20005EEA430E08BF20EAD37070BDC4F10C04F5
:103C3000C4F1200500FA04F320FA05F001FA04F2B9
:103C400040EA020001F0004110EBD37041F10001A5
:103C50005EEA430E08BF20EAD37070BDC4F12005B0
:103C600000FA05F24EEA020E20FA04F301FA05F218
:103C700043EA020321FA04F001F0004121FA04F2C0
:103C800020EA020000EBD3705EEA430E08BF20EA90
:103C9000D37070BD94F0000F0FD101F000464000CA
:103CA00041EB010111F4801F08BF013CF7D041EA4C
:103CB000060195F0000F18BF704703F00046520050
:103CC00043EB030313F4801F08BF013DF7D043EA21
:103CD0000603704794EA0C0F0CEA135518BF95EAD7
:103CE0000C0F0CD050EA410618BF52EA4306D1D15E
:103CF00081EA030101F000414FF0000070BD50EA7D
:103D0000410606BF1046194652EA430619D094EA06
:103D10000C0F02D150EA013613D195EA0C0F05D1F0
:103D200052EA03361CBF104619460AD181EA030144
:103D300001F0004141F0FE4141F470014FF00000FC
:103D400070BD41F0FE4141F4780170BD70B54FF097
:103D5000FF0C4CF4E06C1CEA11541DBF1CEA135517
:103D600094EA0C0F95EA0C0F00F0A7F8A4EB0504F9
:103D700081EA030E52EA03354FEA013100F08880F0
:103D80004FEA03334FF0805545EA131343EA1263B9
:103D90004FEA022245EA111545EA10654FEA00266E
:103DA0000EF000419D4208BF964244F1FD0404F527
:103DB000407402D25B084FEA3202B61A65EB030583
:103DC0005B084FEA32024FF480104FF4002CB6EB40
:103DD000020E75EB030E22BFB61A754640EA0C00C0
:103DE0005B084FEA3202B6EB020E75EB030E22BF00
:103DF000B61A754640EA5C005B084FEA3202B6EB41
:103E0000020E75EB030E22BFB61A754640EA9C00FF
:103E10005B084FEA3202B6EB020E75EB030E22BFCF
:103E2000B61A754640EADC0055EA060E18D04FEA8D
:103E3000051545EA16754FEA06164FEAC30343EA2D
:103E400052734FEAC2025FEA1C1CC0D111F4801FFA
:103E50000BD141EA00014FF000004FF0004CB6E7F3
:103E600011F4801F04BF01430020B4F1FD0C88BF92
:103E7000BCF5E06F3FF6AFAEB5EB030C04BFB6EB9D
:103E8000020C5FEA500C50F1000041EB045170BD90
:103E90000EF0004E4EEA113114EB5C04C2BFD4EBBD
:103EA0000C0541EA045170BD41F480114FF0000E41
:103EB000013C90E645EA060E8DE60CEA135594EABD
:103EC0000C0F08BF95EA0C0F3FF43BAF94EA0C0FC0
:103ED0000AD150EA01347FF434AF95EA0C0F7FF435
:103EE00025AF104619462CE795EA0C0F06D152EA89
:103EF00003353FF4FDAE1046194622E750EA41066D
:103F000018BF52EA43067FF4C5AE50EA41047FF47D
:103F10000DAF52EA43057FF4EBAE12E74FF0FF3CE2
:103F200006E000BF4FF0010C02E000BF4FF0010CB3
:103F30004DF804CD4FEA410C7FEA6C5C4FEA430C2C
:103F400018BF7FEA6C5C1BD001B050EA410C0CBF7B
:103F500052EA430C91EA030F02BF90EA020F0020DD
:103F6000704710F1000F91EA030F58BF994208BF44
:103F700090422CBFD8176FEAE37040F00100704701
:103F80004FEA410C7FEA6C5C02D150EA013C07D158
:103F90004FEA430C7FEA6C5CD6D152EA033CD3D0A3
:103FA0005DF8040B704700BF8446104662468C469D
:103FB0001946634600E000BF01B5FFF7B7FF0028D0
:103FC00048BF10F1000F01BD4DF808EDFFF7F4FFF9
:103FD0000CBF012000205DF808FB00BF4DF808ED84
:103FE000FFF7EAFF34BF012000205DF808FB00BFA7
:103FF0004DF808EDFFF7E0FF94BF012000205DF8C9
:1040000008FB00BF4DF808EDFFF7CEFF94BF01207D
:1040100000205DF808FB00BF4DF808EDFFF7C4FF76
:1040200034BF012000205DF808FB00BF4A0011D218
:1040300012F5001211D20DD56FF47873B3EB625202
:104040000ED44FEAC12343F0004343EA505323FA0E
:1040500002F070474FF00000704750EA013002D183
:104060004FF0FF3070474FF0000070474FEA4102B9
:10407000B2F1E04324BFB3F5001CDCF1FE5C0DD9C6
:1040800001F0004C4FEAC0024CEA5070B2F1004F10
:1040900040EB830008BF20F00100704711F0804F13
:1040A00021D113F13872BCBF01F00040704741F4D8
:1040B00080114FEA5252C2F11802C2F1200C10FADC
:1040C0000CF320FA02F018BF40F001004FEAC123C0
:1040D0004FEAD32303FA0CFC40EA0C0023FA02F364
:1040E0004FEA4303CCE77FEA625307D150EA01333A
:1040F0001EBF4FF0FE4040F44000704701F000400A
:1041000040F0FE4040F40000704700BF844641EAA2
:10411000000313F003036DD1403A41D351F8043B3F
:1041200040F8043B51F8043B40F8043B51F8043B91
:1041300040F8043B51F8043B40F8043B51F8043B81
:1041400040F8043B51F8043B40F8043B51F8043B71
:1041500040F8043B51F8043B40F8043B51F8043B61
:1041600040F8043B51F8043B40F8043B51F8043B51
:1041700040F8043B51F8043B40F8043B51F8043B41
:1041800040F8043B51F8043B40F8043B51F8043B31
:1041900040F8043B51F8043B40F8043B403ABDD2A0
:1041A000303211D351F8043B40F8043B51F8043B42
:1041B00040F8043B51F8043B40F8043B51F8043B01
:1041C00040F8043B103AEDD20C3205D351F8043BD1
:1041D00040F8043B043AF9D2043208D0D2071CBF9D
:1041E00011F8013B00F8013B01D30B8803806046C6
:1041F000704700BF082A13D38B078DD010F003033C
:104200008AD0C3F10403D21ADB071CBF11F8013BAB
:1042100000F8013B80D331F8023B20F8023B7BE7FA
:10422000043AD9D3013A11F8013B00F8013BF9D225
:104230000B7803704B7843708B78837060467047BF
:1042400038B50C460968054629B921462846BDE817
:10425000384003F021BBFFF7F3FF21462846BDE8B5
:10426000384003F019BB00BF204B1B6883423BD092
:10427000C36C70B505468BB10026995939B10C68ED
:10428000284603F009FB2146002CF8D1EB6C0436DC
:10429000802EF2D11946284603F0FEFA296C11B19E
:1042A000284603F0F9FAD5F8481151B105F5A6767C
:1042B000B14206D00C68284603F0EEFAA642214629
:1042C000F8D1696D11B1284603F0E6FAAB6B53B132
:1042D000EB6B28469847D5F8E01221B12846BDE897
:1042E0007040FFF7ADBF70BD704700BF2C000020CD
:1042F0000CB470B59CB020AC0B4E54F8042B02915A
:10430000234606916FF0004502A901940795CDE977
:10431000045600F091F9029B00221A701CB0BDE80F
:10432000704002B0704700BF0802FFFF0EB430B506
:104330009CB01FAB0C4C0D4D53F8042B0193014660
:1043400002910691206802A96FF000440794CDE91C
:10435000044500F071F9029B00221A701CB0BDE800
:10436000304003B0704700BF2C0000200802FFFF60
:104370000EB470B59DB021AC4FF4017254F8045BDB
:10438000ADF814200290069000F09AF80C4B0194BE
:1043900001462A46039107910A4E18680A96234659
:1043A0004FF6FF75002402A90E941394ADF8165031
:1043B00001F068FB1DB0BDE8704003B0704700BF5E
:1043C0002C000020414400080CB470B59CB020AC17
:1043D00005464FF40173084654F8046B02910691A8
:1043E000ADF8143000F06CF80146324623460194D3
:1043F0000391002407912846074E0A964FF6FF7551
:1044000002A90E941394ADF8165001F03BFB1CB0BA
:10441000BDE8704002B070474144000810B50C463A
:10442000B1F90E1004F008FC002803DB236D0344EF
:10443000236510BDA38923F48053A38110BD00BF61
:10444000002070472DE9F0411646B1F90C201F46B7
:10445000D3050C460546B1F90E1007D500220223FC
:1044600003F082FBB4F90C20B4F90E1022F4805250
:10447000A2813B4632462846BDE8F04102F0EEB943
:1044800010B50C46B1F90E1003F06EFBA389421C67
:104490000EBF23F4805343F480532065A38110BDE5
:1044A000B1F90E1002F0F0B90000000000000000A9
:1044B00000000000000000000000000000000000FC
:1044C00090F800F06DE9024520F007016FF0000C54
:1044D00010F0070491F820F040F049804FF00004FC
:1044E0006FF00700D1E9002391F840F000F10800D7
:1044F00082FA4CF2A4FA8CF283FA4CF3A2FA8CF30F
:104500004BBBD1E9022382FA4CF200F10800A4FA75
:104510008CF283FA4CF3A2FA8CF3E3B9D1E90423C9
:1045200082FA4CF200F10800A4FA8CF283FA4CF300
:10453000A2FA8CF37BB9D1E9062301F1200182FABA
:104540004CF200F10800A4FA8CF283FA4CF3A2FAC0
:104550008CF3002BC6D0002A04BF04301A4612BACE
:10456000B2FA82F2FDE8024500EBD2007047D1E9D1
:10457000002304F00305C4F100004FEAC50514F060
:10458000040F91F840F00CFA05F562EA05021CBF31
:1045900063EA050362464FF00004A9E7002A41D010
:1045A00040EA010313F00303F0B425D1032A23D911
:1045B00004680D68AC421FD1043A35D0A4F101352E
:1045C00025EA040414F0803F31D1071D0D1D0DE0D4
:1045D00057F8043B0E68A3F10134B34224EA030404
:1045E0000AD1043A20D014F0803F1DD1032A294675
:1045F000384605F10405EBD803780C789C4202F1AB
:10460000FF320CD182B114B90EE06AB17BB110F85F
:10461000013F11F8014FA34202F1FF32F5D0181B00
:10462000F0BC7047104670470020F0BC7047184639
:10463000F6E700BF000000002DE9F04FC1B00C46C6
:10464000089191460B93099003F072FA0368149352
:104650001846FFF735FFA38913901D0603D523697C
:10466000002B00F018879FED947B00238DED107BCD
:10467000CDE924330DF1C0080F93129315930693DF
:10468000CDF88C80C246CB469BF80030002B00F062
:104690009980252B5C4602D11CE0252B03D014F811
:1046A000013F002BF9D1A4EB0B0585B1DDE92432E4
:1046B00001332A44072BCAF800B0CAF80450CDE9E8
:1046C000243277DC0AF1080A069B2B4406932378F0
:1046D000002B77D000231A468DF86F3019460793C8
:1046E0001F464FF0FF306378059004F1010B0BF18A
:1046F000010B9946A9F12003582B00F27583DFE8DE
:1047000013F0C30273037303BE02730373037303D3
:10471000730373037303B202AD02730367034C03A5
:1047200073036C03B600B600B600B600B600B60060
:10473000B600B600B6007303730373037303730309
:10474000730373037303730373033703E402730385
:10475000E4027303730373037303DF0273037303CE
:10476000A50073037303730373037303750073036B
:1047700073038D0273037303730373037303730370
:1047800073037303730373037C012F01E402E402D8
:10479000E4022A012F01730373031D01730309014E
:1047A000A700CA00C5007303E10073037700730319
:1047B0007303CB0223AADDE9081006F06DF840B9B7
:1047C000C24681E7259B23B10998089923AA06F0E0
:1047D00063F8089B9B8913F0400F069B18BF4FF0AE
:1047E000FF330693069841B0BDE8F08F47F01007FD
:1047F000BE0640F127850B9D073525F0070303F121
:104800000802D3E900450B920123059A00260132E4
:104810008DF86F6000F0288427F08002039254EA3C
:10482000050240F0C080059A002A40F0B086002BB7
:1048300040F0D68417F001030A9300F0488540AB9E
:104840001A46302302F8413D0D92CDE047F01007A3
:1048500017F0200300F000850B9D073525F00703B6
:1048600003F10802D3E900450B920023CDE7A9F13B
:10487000300300201BF8019B00EB800003EB40009D
:10488000A9F13003092BF5D9079033E747F020074A
:104890009BF800302BE70B9A094B146812930432F3
:1048A00047F63003ADF8703047F002070B92002551
:1048B00002234FF07809A8E7000000000000000084
:1048C00008D600080B9A13680D9300248DF86F40EA
:1048D000151D002B00F00B86059A531C00F0B386C3
:1048E00021460D9803F084FC002800F094870D9B6E
:1048F0000594C31A0A930B95039723EAE3739DF873
:104900006F6004930E94002E00F08980049B0133A5
:10491000049384E0002A41F0A4800B9AB90652F86F
:10492000043B0B9200F11285FA0600F106867F0621
:1049300040F10386BDF818201A80A5E69BF80030E8
:104940006C2B03BF9BF8013047F020070BF1010BE4
:1049500047F01007CBE647F040079BF80030C6E66B
:10496000002A41F06080BC0640F10A820B9D0735A9
:1049700025F00703D3E9004503F108020B92002C50
:1049800075F10003C0F2AF84059B9DF86F600133A1
:1049900000F0B48427F08002039254EA05024FF03D
:1049A00001033FF440AF012B00F06283022B00F0C3
:1049B0008283414600E01146E20842EA4572E80877
:1049C00004F0070305461446303354EA050001F8A5
:1049D000013C01F1FF32EED103980D92C00700F1C6
:1049E0005984A8EB02030A93059B0A9A9342B8BF25
:1049F0001346049300230E9385E70B9900230A685E
:104A00008DF86F301E468DF8982001230A1DCDE9E0
:104A10000373CDE90A3226AB05960E960D93039BE0
:104A200013F0020702D0049B02330493039B259CDE
:104A300013F084030C933FD1079B049A9D1A002D19
:104A40003ADD102D249B29DD52462146AA46102628
:104A5000DDE9085406E0AAF1100ABAF1100F02F1DC
:104A6000080218DD0133BB481031072BCDE9243192
:104A7000C2E90006EFDD23AA2946204605F00CFF17
:104A800000287FF4A6AEAAF1100ABAF1100FDDE9F2
:104A900024314246E6DC55460C4692460133AD4A87
:104AA0002C44072BCDE92434CAE9002500F34985BD
:104AB0009DF86F600AF1080A76B1249B0133013436
:104AC0000DF16F010122072BCDE92434CAE9001250
:104AD00000F3DB820AF1080A6FB1249B0133023430
:104AE0001CA90222072BCDE92434CAE9001200F3E5
:104AF000D7820AF1080A0C9B802B00F0E781059B06
:104B00000A9A9D1A002D31DD102D249A924F22DD34
:104B1000534621461026DDE908A404E0103D102D7F
:104B200003F1080315DD01321031072ACDE92421F4
:104B3000C3E90076F2DD23AA5146204605F0ACFE1B
:104B400000287FF446AE103D102DDDE924214346B8
:104B5000E9DC9A460C4601322C44072ACDE924248C
:104B6000CAE9007500F3BC820AF1080A039BDF055D
:104B700000F15081249B0D9ACAF800200A9ACAF8C5
:104B8000042001331444072B2594249300F30E8250
:104B90000AF1080A039B5A0731D5079B049A9D1A0C
:104BA000002D2CDD102D249B1FDD1026DDE908973C
:104BB00004E0103D102D0AF1080A16DD0133654AA4
:104BC0001034072BCDE92434CAE90026F1DD23AAED
:104BD0004946384605F060FE00287FF4FAAD103DE6
:104BE000102DDDE92434C246E8DC0133594A2C4457
:104BF000072BCDE92434CAE9002500F35E83DDE903
:104C0000063204998A42ACBF9B185B180693002CAD
:104C100040F0958100232493C24635E5002A40F0F8
:104C200010874E4B1293B9063DD50B9D073525F0E5
:104C30000703D3E9004503F108020B92FE0740F198
:104C4000D18054EA050300F0CD8030238DF8703018
:104C50008DF8719047F002070223D6E59BF80030EB
:104C600001222B2143E50B989BF800300468079440
:104C7000002C00F10400C0F20A840B9037E547F0E5
:104C800001079BF8003032E59BF8003000297FF4E3
:104C90002EAD012220212AE5002A40F0E686304B85
:104CA0001293B906C1D40B9BFA0653F8044B0B932D
:104CB00000F111837B0640F10E83A4B20025BDE70D
:104CC00047F008079BF8003011E5002A40F0BD8648
:104CD0000B9D073525F0070595ED007B52EC171B62
:104CE00022F0004317938DED167A05F10804DDE9F3
:104CF00016014FF0FF321B4B0B948DED107B08F02B
:104D0000A1FA002840F031834FF0FF32154BDDE966
:104D10001601FFF76DF9002840F0278300220023D9
:104D2000DDE91001FFF75AF9002840F025859DF8CC
:104D30006F600D4A0D4B0321002027F08004B9F16C
:104D4000470FD8BF1A46CDE9041003940D920A917B
:104D50000E90D8E528D6000838D60008F4D500080B
:104D600008D60008FFFFEF7FE8D50008E4D500086B
:104D7000002A40F06E8647F01007BC063FF5F6ADFE
:104D80000B9BF80653F8044B0B9300F1A6827906AF
:104D900040F1A38224B2E517F1E59BF80090B9F148
:104DA0002A0F0BF1010000F01886A9F13003092B3E
:104DB000834600F2078500201BF8019B00EB800072
:104DC00003EB4000A9F13003092BF5D9059091E4DC
:104DD0009BF8003047F0040789E447F080079BF810
:104DE000003084E4022310E5002A40F03686B9F151
:104DF000000F3FF4E7AC002301221E468DF86F3010
:104E000005930E9326AB04928DF8989003970A921F
:104E10000D9304E6B9F1650F40F3D380002200231F
:104E2000DDE91001FFF7D0F8002800F06981249B2C
:104E3000B14ACAF80020013301340122072BCDE921
:104E40002434CAF8042000F3CE830AF1080A1D9B1B
:104E50000F9A259C934280F22B82249B149ACAF8C5
:104E60000020139ACAF8042001331444072BCDE91B
:104E7000243400F331830AF1080A0F9B5D1E002DD4
:104E80007FF788AE102D249A9C4F40F385832346EC
:104E90001026DDE9084905E00AF1080A103D102D49
:104EA00040F3798301321033072ACDE92423CAE97C
:104EB0000076F1DD23AA2146484605F0EDFC0028E6
:104EC0007FF487ACDDE92423C246E7E7079B049A19
:104ED0009D1A002D7FF713AE102D249A874F22DDE7
:104EE000534621461026DDE908A404E0103D102DAC
:104EF00003F1080315DD01321031072ACDE9242121
:104F0000C3E90076F2DD23AA5146204605F0C4FC31
:104F100000287FF45EAC103D102DDDE924214346CE
:104F2000E9DC9A460C4601322C44072ACDE92424B8
:104F3000CAE9007500F33A830AF1080ADFE523AAFB
:104F4000DDE9081005F0A8FC00283FF463AE40E45A
:104F500023AADDE9081005F09FFC00287FF439AC96
:104F60001D9B259CC2461BB90F9A002A00F0758331
:104F7000249A1499CAF800101399CAF8041001323F
:104F80000C44072A2594249200F350840AF1080A5D
:104F9000002BC0F287840F9B0D9901321C44072A15
:104FA000CDE92424CAE900137FF7F2AD23AADDE995
:104FB000081005F071FC00287FF40BAC259CC2465C
:104FC000E8E50F9A249B012A04F1010403F101058D
:104FD0000AF1080640F34A8101230D9ACAF800201D
:104FE000072DCDE92454CAF8043000F3B882139B8E
:104FF000149A01351C44072DCDE92454C6E9002339
:1050000000F3B98208366B1C1F46B9460F9F0A93FE
:10501000013F00220023DDE91001059706F1080A8F
:10502000FEF7D2FF002840F0E1800D9B776001334E
:105030003C44B9F1070F33602594CDF8909000F30C
:105040003B8206F1100305F1020956469A46159A6D
:10505000726014441FABB9F1070F2594CDF89090FE
:1050600033607FF797ADA1E7012B03977FF49EACE8
:10507000002D08BF0A2C80F0478140AB303403F884
:10508000414D0D9301230A93AEE423AADDE90810F4
:1050900005F002FC00287FF49CAB259CC2461BE572
:1050A00023AADDE9081005F0F7FB00287FF491AB97
:1050B000259CC2461FE5129F4246230904F00F00BB
:1050C00043EA057329091C460D463B5C02F8013D85
:1050D00054EA0503F1D1A8EB02030D920A9383E48D
:1050E00023AADDE9081005F0D7FB00287FF471AB97
:1050F000259CC2463AE500BF24D6000838D60008F1
:105100001D9B002B40F35E82DDE90E329342A8BF67
:105110001346002B1D460EDD249B0D9ACAF8002075
:1051200001332C44072B2594CAF80450249300F330
:1051300018830AF1080A0E9B002DA8BF5B1B002BE9
:105140001D4600F380811D9B0F9A9342C0F2E481BB
:10515000039AD00700F1E0810F9A0E98D31A151A1E
:105160009D42A8BF1D46002D0FDD249A0D99CAF857
:105170000450013201442C44072ACAF80010CDE93A
:10518000242400F323830AF1080A002DACBF5D1B21
:105190001D46002D7FF7FEAC102D249AC54F40F31D
:1051A000FB8123461026DDE9084905E00AF1080ADB
:1051B000103D102D40F3EF8101321033072ACDE965
:1051C0002423CAE90076F1DD23AA2146484605F0EA
:1051D00063FB00287FF4FDAADDE92423C246E7E74C
:1051E000059B0A93CDF83480FFF7FEBB059A002A91
:1051F0007FF72DAF102AAF4F40F3EA833346924634
:105200004FF0100922460A9DDDE9086407E00833E3
:10521000AAF1100ABAF1100F40F3EF8101351032F4
:10522000072DCDE92452C3E90079F0DD23AA3146E8
:10523000204605F031FB00287FF4CBAADDE924529B
:105240004346E5E70B9BFD0653F8044B0B9376D5DD
:1052500000250123FFF7D9BA0B9A52F8044B0B92A1
:1052600017F0100279D00025FFF7CFBA039AD107C3
:105270003FF5B2AE01220D99CAF80010072DCDE915
:105280002454CAF8042000F3178103F102090AF13B
:10529000100ADCE6302B00F039810D9A02393023F8
:1052A00002F8013CA8EB01030A930D91FFF79CBBA8
:1052B000039BDE073FF5D1AD6CE423AADDE90810BE
:1052C00005F0EAFA00287FF484AA259C97E4CDF83B
:1052D0003480FFF789BB0025B0E4E517002C75F199
:1052E0000003BFF651AB059B64424FF02D0665EB02
:1052F000450501338DF86F607FF44CAB002D08BF7E
:105300000A2C0397FFF4B9AE4746204629460A22E5
:10531000002307F0D5FF303207F8012D204629463B
:1053200000230A2207F0CCFF04460D4654EA050389
:10533000EBD1A8EB07030D970A93FFF755BB78064F
:1053400048BFA4B200250123FFF75FBA069A1046B2
:10535000D117C3E90001FFF797B917F040031CBF4D
:105360001346A4B20025FFF750BADDE9100102464A
:105370000B4607F067FF002840F00383059B5A1C8B
:1053800029F0200600F04482472E00F06B81119B2B
:1053900047F48072002B0392C0F20B829DED107BCC
:1053A0008DED187B00230C93B9F1660F00F020827D
:1053B000B9F1460F00F05C82452E00F0588121AA19
:1053C0001EABCDE9003202211DAB059A09989DED77
:1053D000180B01F0FDFAB9F1670F0D9040F02F8323
:1053E000FB0740F169810D9B059A9C180022002360
:1053F000DDE91801FEF7E8FD002800F0CE81234624
:105400000D9A9B1A0F93472E1D9B0E9300F05D8102
:10541000B9F1660F40F061810E9B002B059B40F3B4
:10542000D082002B40F0B982FD0700F1B6820E9BBE
:1054300004930A930C9B002B40F07A8105939DF80E
:105440006F60FFF760BA102B249A1A4F40F3EF8079
:1054500023461026DDE9084905E00AF1080A103D57
:10546000102D40F3E38001321033072ACDE92423C5
:10547000CAE90076F1DD23AA2146484605F00CFA78
:1054800000287FF4A6A9DDE92423C246E7E76442A9
:1054900007940B909EE44021099802F07BFB089B47
:1054A00018601861002800F0C282089A40235361F6
:1054B000FFF7D9B838D6000823AADDE9081005F0AF
:1054C000EBF900287FF485A9DDE924340DF1C80A41
:1054D00003F101094646BAE523AADDE9081005F003
:1054E000DBF900287FF475A9259CC246C5E4059B1D
:1054F0000D9E0596062B28BF062304930A93BA4BEC
:105500000B9503970E960D93FFF7FDB90D9BA8EB36
:1055100003030A93FFF768BA249A1499CAF8001093
:105520001399CAF8041001320C44072A25942492D6
:1055300000F327810AF1080A0EE6069A1A60FFF7BF
:10554000A3B823AADDE9081005F0A6F900287FF426
:1055500040A99DF86F60259CC246FFF7ADBA23AA0B
:10556000DDE9081005F098F900287FF432A9DDE99B
:10557000245446463BE523AADDE9081005F08CF9E2
:1055800000287FF426A9DDE9245446463BE5012B9B
:105590007FF40CAA71E51C4601322C44072ACDE9A0
:1055A0002424CAE900757FF7F3AAFFE423AADDE902
:1055B000081005F071F900287FF40BA9259CC2465C
:1055C000FFF79DBA249A8949CAF8001001320134C4
:1055D0000121072ACDE92424CAF804103FF7B8AC0A
:1055E0000AF1080ABFE423AADDE9081005F054F91E
:1055F00000287FF4EEA8C24629E414461E46CDF8E2
:1056000014A005F1010903F10802059BCDF8909063
:105610001C44B9F1070F2594C6E900733FF74CAF5E
:1056200009F1010902F1080A164610E51C4601328B
:105630002C44072ACDE92424CAE9007500F3278108
:105640000AF1080A7FE50D980594FEF739FF0397E4
:10565000CDE90A050346FFF750B9039AD5077FF550
:1056600099AA85E4002B08BF012305938FE6059BCB
:1056700009985D1C21A91EABCDE900312A461DAB5E
:1056800002219DED180B01F0A3F90D90B9F1470F20
:1056900040F0C381FB0740F1B9810D9BB9F1460F82
:1056A00003EB05047FF4A2AE0D9B1B78302B00F0BA
:1056B0005A811D9D2C4499E61D9A219B0E920D9AAC
:1056C000472EA3EB02030F9307D10E9BDA1C02DBDC
:1056D000059A9A4233DAA9F102090E9B8DF87C9063
:1056E000013B002B1D93BDBF0E9BC3F101032D2277
:1056F0002B22092B8DF87D2000F3018130333022DD
:105700008DF87F308DF87E2020AB1FAA9B1A0F9A50
:105710001593012A13440A9340F349810A9B139A73
:1057200013440A9323EAE373049300230E9381E660
:105730002D2600238DF86F600593FFF7E7B8DDE9AC
:105740000E318B42C0F28080F80740F105810E9B3C
:10575000139A13440A9323EAE37304934FF06709FF
:1057600068E623AADDE9081005F096F800287FF422
:1057700030A8259CC246DEE42D268DF86F60FFF729
:10578000D8BA23AADDE9081005F086F800287FF4CE
:1057900020A81D9B259CC246DEE4219BA342BFF4AA
:1057A0002FAE30215A1C21921970219B9C42F9D8AE
:1057B00026E6DDE9101202F1004319932D2318911A
:1057C0000C93F1E500230593FEF794BF23AADDE9CE
:1057D000081005F061F800287EF4FBAF1D9B0F9ABE
:1057E000259CD31AC246D0E41CD6000824D6000853
:1057F000059D099821AA1EABCDE9003203211DABFE
:105800002A469DED180B01F0E3F80D9044194BE783
:1058100006230593BBE5059B04930A9305900B951E
:1058200003970E909DF86F60FFF76DB823AADDE92E
:10583000081005F031F800287EF4CBAF1D9BDDE9A0
:105840002424C246FFF7A4BB139A0F9B13440E9A5D
:105850000A93002A06DC0E9B0A9AC3F101031A443C
:1058600013460A9223EAE37304934FF06709E1E5D4
:10587000059D099821AA1EABCDE9003203211DAB7D
:105880002A469DED180B01F0A3F80D9005E723AA19
:10589000DDE9081005F000F800287EF49AAF259C99
:1058A000C24650E45D421033724F1CDA1026DDF818
:1058B000249004E00AF1080A103D102D13DD013296
:1058C0001034072ACDE92424CAE90076F2DD23AAA0
:1058D0000899484604F0E0FF00287EF47AAFDDE93D
:1058E0002424C246E8E701322C44072ACDE92424C7
:1058F000CAE900757DDC0AF1080AFFF74CBB0DF11F
:105900008B0420465C4D00E01046A5FB0312D20834
:1059100002EB8201A3EB410303F130011346092B93
:1059200000F8011C00F1FF32EEDC30330238D9B24E
:10593000844202F8011C73D90DF17E00134601E088
:1059400013F8011B00F8011B9C42F9D123AB9B1AF1
:105950000DF17E021344D8E623EAE37204920A931F
:105960004FF0670966E500220023DDE91801FEF724
:105970002BFB00287FF49DAEC5F101051D952C443D
:1059800034E5119B3D4A002BB6BF2D269DF86F6074
:105990008DF86F603A4BFFF7CEB90E9B139A134404
:1059A000059A1A4422EAE2730A92049342E517F038
:1059B00001030E937FF4B2AE0A9B23EAE3730493D0
:1059C00038E53BB9FC0705D4012304930A9331E57C
:1059D00052461AE6139B0133E2E70B9D9BF8013018
:1059E0002C68834644EAE474281D05940B90FEF766
:1059F0007EBE23AADDE9081004F04EFF00287EF4E5
:105A0000E8AEDDE92424C246FFF7C5BA1D9A219B02
:105A10000E920D9A9B1A0F9357E60D9B5C19E5E4C5
:105A20000DF17E0371E68DF86F10FEF79CBF099AA9
:105A30000C2313604FF0FF330693FEF7D3BE059D92
:105A400024E68DF86F10FFF7ECB88DF86F10FFF7B4
:105A50003FB98DF86F10FFF78EB98DF86F10FFF713
:105A6000C6B98DF86F10FEF758BF8DF86F10FFF7AD
:105A700016B900BF38D60008CDCCCCCCF0D5000884
:105A8000ECD500082DE9F04F2DED028B8A46B1F9D7
:105A90000C10ADF52B7D8E0402909346059309D42E
:105AA000DAF8643041F4005123F40053AAF80C10E2
:105AB000CAF86430002306930493994603935F4623
:105AC00017F8013B0F93002B00F07B8102F018F8D0
:105AD0000F9B1844467816F0080640F07F82252B6D
